:020000020000FC
:040000000C94270035
:100040000C945A003F065B4F666D7D077F6F0FEF84
:100050000DBF18E01EBF08E304B90FEF07B903E8AE
:100060000AB92B982C9820E050E060E070E039E06D
:1000700085E0F0E0E4E4E20F24910E9452007894DD
:1000800040E00E9469000E9478004436D1F744277E
:100090001D9A63130E94650060E078130E94670058
:1000A00070E0EFCF05E005BD03E606BD01E000937B
:1000B0006E0008950F930FB70F9303E606BDA89A3D
:1000C00043950F910FBF0F9118956395DACF7395F4
:1000D000D8CF2B98262FF0E0E4E4E20F24912B9860
:1000E00026FD5F9A26FF5F9828B92B982C9A0895D1
:1000F0002C98572FF0E0E4E4E50F54912C9856FD2E
:0E0100005F9A56FF5F9858B92C982B9A089575
:00000001FF
