:020000020000FC
:040000000C942A0032
:100040000C945C003F065B4F666D7D077F6F777C8D
:10005000395E79710FEF0DBF18E01EBF08E304B9D8
:100060000FEF07B903E80AB920E060E03FE0F0E0F5
:10007000E4E4E20F24910E945400789440E0262F9B
:10008000F0E0E4E4E20F249126FD4F9A26FF5F980A
:1000900028B92C9A2B9A443691F744271D9A63135A
:1000A0000E94670060E0EBCF05E005BD03E606BDFA
:1000B00001E000936E0008950F930FB70F9303E6CE
:1000C00006BDA89A43950F910FBF0F9118956395A0
:0200D000D6CF89
:00000001FF
